{
  "contractName": "PactNFT",
  "abi": [
    {
      "inputs": [],
      "stateMutability": "nonpayable",
      "type": "constructor"
    },
    {
      "anonymous": false,
      "inputs": [
        {
          "indexed": true,
          "internalType": "address",
          "name": "owner",
          "type": "address"
        },
        {
          "indexed": true,
          "internalType": "address",
          "name": "approved",
          "type": "address"
        },
        {
          "indexed": true,
          "internalType": "uint256",
          "name": "tokenId",
          "type": "uint256"
        }
      ],
      "name": "Approval",
      "type": "event"
    },
    {
      "anonymous": false,
      "inputs": [
        {
          "indexed": true,
          "internalType": "address",
          "name": "owner",
          "type": "address"
        },
        {
          "indexed": true,
          "internalType": "address",
          "name": "operator",
          "type": "address"
        },
        {
          "indexed": false,
          "internalType": "bool",
          "name": "approved",
          "type": "bool"
        }
      ],
      "name": "ApprovalForAll",
      "type": "event"
    },
    {
      "anonymous": false,
      "inputs": [
        {
          "indexed": true,
          "internalType": "bytes32",
          "name": "role",
          "type": "bytes32"
        },
        {
          "indexed": true,
          "internalType": "bytes32",
          "name": "previousAdminRole",
          "type": "bytes32"
        },
        {
          "indexed": true,
          "internalType": "bytes32",
          "name": "newAdminRole",
          "type": "bytes32"
        }
      ],
      "name": "RoleAdminChanged",
      "type": "event"
    },
    {
      "anonymous": false,
      "inputs": [
        {
          "indexed": true,
          "internalType": "bytes32",
          "name": "role",
          "type": "bytes32"
        },
        {
          "indexed": true,
          "internalType": "address",
          "name": "account",
          "type": "address"
        },
        {
          "indexed": true,
          "internalType": "address",
          "name": "sender",
          "type": "address"
        }
      ],
      "name": "RoleGranted",
      "type": "event"
    },
    {
      "anonymous": false,
      "inputs": [
        {
          "indexed": true,
          "internalType": "bytes32",
          "name": "role",
          "type": "bytes32"
        },
        {
          "indexed": true,
          "internalType": "address",
          "name": "account",
          "type": "address"
        },
        {
          "indexed": true,
          "internalType": "address",
          "name": "sender",
          "type": "address"
        }
      ],
      "name": "RoleRevoked",
      "type": "event"
    },
    {
      "anonymous": false,
      "inputs": [
        {
          "indexed": true,
          "internalType": "address",
          "name": "from",
          "type": "address"
        },
        {
          "indexed": true,
          "internalType": "address",
          "name": "to",
          "type": "address"
        },
        {
          "indexed": true,
          "internalType": "uint256",
          "name": "tokenId",
          "type": "uint256"
        }
      ],
      "name": "Transfer",
      "type": "event"
    },
    {
      "inputs": [],
      "name": "DEFAULT_ADMIN_ROLE",
      "outputs": [
        {
          "internalType": "bytes32",
          "name": "",
          "type": "bytes32"
        }
      ],
      "stateMutability": "view",
      "type": "function",
      "constant": true
    },
    {
      "inputs": [],
      "name": "MINTER_ROLE",
      "outputs": [
        {
          "internalType": "bytes32",
          "name": "",
          "type": "bytes32"
        }
      ],
      "stateMutability": "view",
      "type": "function",
      "constant": true
    },
    {
      "inputs": [
        {
          "internalType": "address",
          "name": "to",
          "type": "address"
        },
        {
          "internalType": "uint256",
          "name": "tokenId",
          "type": "uint256"
        }
      ],
      "name": "approve",
      "outputs": [],
      "stateMutability": "nonpayable",
      "type": "function"
    },
    {
      "inputs": [
        {
          "internalType": "address",
          "name": "owner",
          "type": "address"
        }
      ],
      "name": "balanceOf",
      "outputs": [
        {
          "internalType": "uint256",
          "name": "",
          "type": "uint256"
        }
      ],
      "stateMutability": "view",
      "type": "function",
      "constant": true
    },
    {
      "inputs": [
        {
          "internalType": "uint256",
          "name": "tokenId",
          "type": "uint256"
        }
      ],
      "name": "getApproved",
      "outputs": [
        {
          "internalType": "address",
          "name": "",
          "type": "address"
        }
      ],
      "stateMutability": "view",
      "type": "function",
      "constant": true
    },
    {
      "inputs": [
        {
          "internalType": "bytes32",
          "name": "role",
          "type": "bytes32"
        }
      ],
      "name": "getRoleAdmin",
      "outputs": [
        {
          "internalType": "bytes32",
          "name": "",
          "type": "bytes32"
        }
      ],
      "stateMutability": "view",
      "type": "function",
      "constant": true
    },
    {
      "inputs": [
        {
          "internalType": "bytes32",
          "name": "role",
          "type": "bytes32"
        },
        {
          "internalType": "address",
          "name": "account",
          "type": "address"
        }
      ],
      "name": "grantRole",
      "outputs": [],
      "stateMutability": "nonpayable",
      "type": "function"
    },
    {
      "inputs": [
        {
          "internalType": "bytes32",
          "name": "role",
          "type": "bytes32"
        },
        {
          "internalType": "address",
          "name": "account",
          "type": "address"
        }
      ],
      "name": "hasRole",
      "outputs": [
        {
          "internalType": "bool",
          "name": "",
          "type": "bool"
        }
      ],
      "stateMutability": "view",
      "type": "function",
      "constant": true
    },
    {
      "inputs": [
        {
          "internalType": "address",
          "name": "owner",
          "type": "address"
        },
        {
          "internalType": "address",
          "name": "operator",
          "type": "address"
        }
      ],
      "name": "isApprovedForAll",
      "outputs": [
        {
          "internalType": "bool",
          "name": "",
          "type": "bool"
        }
      ],
      "stateMutability": "view",
      "type": "function",
      "constant": true
    },
    {
      "inputs": [],
      "name": "name",
      "outputs": [
        {
          "internalType": "string",
          "name": "",
          "type": "string"
        }
      ],
      "stateMutability": "view",
      "type": "function",
      "constant": true
    },
    {
      "inputs": [
        {
          "internalType": "uint256",
          "name": "tokenId",
          "type": "uint256"
        }
      ],
      "name": "ownerOf",
      "outputs": [
        {
          "internalType": "address",
          "name": "",
          "type": "address"
        }
      ],
      "stateMutability": "view",
      "type": "function",
      "constant": true
    },
    {
      "inputs": [
        {
          "internalType": "bytes32",
          "name": "role",
          "type": "bytes32"
        },
        {
          "internalType": "address",
          "name": "account",
          "type": "address"
        }
      ],
      "name": "renounceRole",
      "outputs": [],
      "stateMutability": "nonpayable",
      "type": "function"
    },
    {
      "inputs": [
        {
          "internalType": "bytes32",
          "name": "role",
          "type": "bytes32"
        },
        {
          "internalType": "address",
          "name": "account",
          "type": "address"
        }
      ],
      "name": "revokeRole",
      "outputs": [],
      "stateMutability": "nonpayable",
      "type": "function"
    },
    {
      "inputs": [
        {
          "internalType": "address",
          "name": "from",
          "type": "address"
        },
        {
          "internalType": "address",
          "name": "to",
          "type": "address"
        },
        {
          "internalType": "uint256",
          "name": "tokenId",
          "type": "uint256"
        }
      ],
      "name": "safeTransferFrom",
      "outputs": [],
      "stateMutability": "nonpayable",
      "type": "function"
    },
    {
      "inputs": [
        {
          "internalType": "address",
          "name": "from",
          "type": "address"
        },
        {
          "internalType": "address",
          "name": "to",
          "type": "address"
        },
        {
          "internalType": "uint256",
          "name": "tokenId",
          "type": "uint256"
        },
        {
          "internalType": "bytes",
          "name": "_data",
          "type": "bytes"
        }
      ],
      "name": "safeTransferFrom",
      "outputs": [],
      "stateMutability": "nonpayable",
      "type": "function"
    },
    {
      "inputs": [
        {
          "internalType": "address",
          "name": "operator",
          "type": "address"
        },
        {
          "internalType": "bool",
          "name": "approved",
          "type": "bool"
        }
      ],
      "name": "setApprovalForAll",
      "outputs": [],
      "stateMutability": "nonpayable",
      "type": "function"
    },
    {
      "inputs": [],
      "name": "symbol",
      "outputs": [
        {
          "internalType": "string",
          "name": "",
          "type": "string"
        }
      ],
      "stateMutability": "view",
      "type": "function",
      "constant": true
    },
    {
      "inputs": [
        {
          "internalType": "uint256",
          "name": "tokenId",
          "type": "uint256"
        }
      ],
      "name": "tokenURI",
      "outputs": [
        {
          "internalType": "string",
          "name": "",
          "type": "string"
        }
      ],
      "stateMutability": "view",
      "type": "function",
      "constant": true
    },
    {
      "inputs": [
        {
          "internalType": "address",
          "name": "from",
          "type": "address"
        },
        {
          "internalType": "address",
          "name": "to",
          "type": "address"
        },
        {
          "internalType": "uint256",
          "name": "tokenId",
          "type": "uint256"
        }
      ],
      "name": "transferFrom",
      "outputs": [],
      "stateMutability": "nonpayable",
      "type": "function"
    },
    {
      "inputs": [
        {
          "components": [
            {
              "internalType": "uint256",
              "name": "tokenId",
              "type": "uint256"
            },
            {
              "internalType": "uint256",
              "name": "minPrice",
              "type": "uint256"
            },
            {
              "internalType": "string",
              "name": "uri",
              "type": "string"
            },
            {
              "internalType": "bytes",
              "name": "signature",
              "type": "bytes"
            }
          ],
          "internalType": "struct PactNFT.NFTVoucher",
          "name": "voucher",
          "type": "tuple"
        }
      ],
      "name": "redeem",
      "outputs": [
        {
          "internalType": "uint256",
          "name": "",
          "type": "uint256"
        }
      ],
      "stateMutability": "payable",
      "type": "function",
      "payable": true
    },
    {
      "inputs": [],
      "name": "withdraw",
      "outputs": [],
      "stateMutability": "nonpayable",
      "type": "function"
    },
    {
      "inputs": [],
      "name": "availableToWithdraw",
      "outputs": [
        {
          "internalType": "uint256",
          "name": "",
          "type": "uint256"
        }
      ],
      "stateMutability": "view",
      "type": "function",
      "constant": true
    },
    {
      "inputs": [],
      "name": "getChainID",
      "outputs": [
        {
          "internalType": "uint256",
          "name": "",
          "type": "uint256"
        }
      ],
      "stateMutability": "view",
      "type": "function",
      "constant": true
    },
    {
      "inputs": [
        {
          "internalType": "bytes4",
          "name": "interfaceId",
          "type": "bytes4"
        }
      ],
      "name": "supportsInterface",
      "outputs": [
        {
          "internalType": "bool",
          "name": "",
          "type": "bool"
        }
      ],
      "stateMutability": "view",
      "type": "function",
      "constant": true
    }
  ],
  "bytecode": "0x6101406040523480156200001257600080fd5b506040518060400160405280600f81526020017f506163744e46542d566f756368657200000000000000000000000000000000008152506040518060400160405280600181526020017f31000000000000000000000000000000000000000000000000000000000000008152506040518060400160405280600781526020017f506163744e4654000000000000000000000000000000000000000000000000008152506040518060400160405280600781526020017f504143544e46540000000000000000000000000000000000000000000000000081525081600090805190602001906200010392919062000216565b5080600190805190602001906200011c92919062000216565b50505060008280519060200120905060008280519060200120905060007f8b73c3c69bb8fe3d512ecc4cf759cc79239f7b179b0ffacaa9a75d522b39400f90508260e081815250508161010081815250504660a0818152505062000188818484620001da60201b60201c565b608081815250503073ffffffffffffffffffffffffffffffffffffffff1660c08173ffffffffffffffffffffffffffffffffffffffff1660601b81525050806101208181525050505050505062000403565b60008383834630604051602001620001f7959493929190620002f9565b6040516020818303038152906040528051906020012090509392505050565b82805462000224906200039e565b90600052602060002090601f01602090048101928262000248576000855562000294565b82601f106200026357805160ff191683800117855562000294565b8280016001018555821562000294579182015b828111156200029357825182559160200191906001019062000276565b5b509050620002a39190620002a7565b5090565b5b80821115620002c2576000816000905550600101620002a8565b5090565b620002d18162000356565b82525050565b620002e2816200036a565b82525050565b620002f38162000394565b82525050565b600060a082019050620003106000830188620002d7565b6200031f6020830187620002d7565b6200032e6040830186620002d7565b6200033d6060830185620002e8565b6200034c6080830184620002c6565b9695505050505050565b6000620003638262000374565b9050919050565b6000819050919050565b600073ffffffffffffffffffffffffffffffffffffffff82169050919050565b6000819050919050565b60006002820490506001821680620003b757607f821691505b60208210811415620003ce57620003cd620003d4565b5b50919050565b7f4e487b7100000000000000000000000000000000000000000000000000000000600052602260045260246000fd5b60805160a05160c05160601c60e0516101005161012051614815620004566000396000612a9001526000612ad201526000612ab1015260006129e601526000612a3c01526000612a6501526148156000f3fe60806040526004361061014b5760003560e01c806370a08231116100b6578063c87b56dd1161006f578063c87b56dd146104a0578063d5391393146104dd578063d547741f14610508578063e2ca66ef14610531578063e322ad2b14610561578063e985e9c51461058c5761014b565b806370a082311461037e57806391d14854146103bb57806395d89b41146103f8578063a217fddf14610423578063a22cb4651461044e578063b88d4fde146104775761014b565b80632f2ff15d116101085780632f2ff15d1461028457806336568abe146102ad5780633ccfd60b146102d657806342842e0e146102ed578063564b81ef146103165780636352211e146103415761014b565b806301ffc9a71461015057806306fdde031461018d578063081812fc146101b8578063095ea7b3146101f557806323b872dd1461021e578063248a9ca314610247575b600080fd5b34801561015c57600080fd5b5061017760048036038101906101729190613085565b6105c9565b6040516101849190613731565b60405180910390f35b34801561019957600080fd5b506101a26105eb565b6040516101af9190613844565b60405180910390f35b3480156101c457600080fd5b506101df60048036038101906101da9190613118565b61067d565b6040516101ec91906136ca565b60405180910390f35b34801561020157600080fd5b5061021c60048036038101906102179190612fe4565b610702565b005b34801561022a57600080fd5b5061024560048036038101906102409190612ede565b61081a565b005b34801561025357600080fd5b5061026e60048036038101906102699190613020565b61087a565b60405161027b919061374c565b60405180910390f35b34801561029057600080fd5b506102ab60048036038101906102a69190613049565b61089a565b005b3480156102b957600080fd5b506102d460048036038101906102cf9190613049565b6108bb565b005b3480156102e257600080fd5b506102eb61093e565b005b3480156102f957600080fd5b50610314600480360381019061030f9190612ede565b610a80565b005b34801561032257600080fd5b5061032b610aa0565b6040516103389190613b66565b60405180910390f35b34801561034d57600080fd5b5061036860048036038101906103639190613118565b610aad565b60405161037591906136ca565b60405180910390f35b34801561038a57600080fd5b506103a560048036038101906103a09190612e79565b610b5f565b6040516103b29190613b66565b60405180910390f35b3480156103c757600080fd5b506103e260048036038101906103dd9190613049565b610c17565b6040516103ef9190613731565b60405180910390f35b34801561040457600080fd5b5061040d610c82565b60405161041a9190613844565b60405180910390f35b34801561042f57600080fd5b50610438610d14565b604051610445919061374c565b60405180910390f35b34801561045a57600080fd5b5061047560048036038101906104709190612fa8565b610d1b565b005b34801561048357600080fd5b5061049e60048036038101906104999190612f2d565b610d31565b005b3480156104ac57600080fd5b506104c760048036038101906104c29190613118565b610d93565b6040516104d49190613844565b60405180910390f35b3480156104e957600080fd5b506104f2610ee5565b6040516104ff919061374c565b60405180910390f35b34801561051457600080fd5b5061052f600480360381019061052a9190613049565b610f09565b005b61054b600480360381019061054691906130d7565b610f2a565b6040516105589190613b66565b60405180910390f35b34801561056d57600080fd5b50610576611009565b6040516105839190613b66565b60405180910390f35b34801561059857600080fd5b506105b360048036038101906105ae9190612ea2565b611050565b6040516105c09190613731565b60405180910390f35b60006105d4826110e4565b806105e457506105e3826111c6565b5b9050919050565b6060600080546105fa90613edf565b80601f016020809104026020016040519081016040528092919081815260200182805461062690613edf565b80156106735780601f1061064857610100808354040283529160200191610673565b820191906000526020600020905b81548152906001019060200180831161065657829003601f168201915b5050505050905090565b600061068882611240565b6106c7576040517f08c379a00000000000000000000000000000000000000000000000000000000081526004016106be90613aa6565b60405180910390fd5b6004600083815260200190815260200160002060009054906101000a900473ffffffffffffffffffffffffffffffffffffffff169050919050565b600061070d82610aad565b90508073ffffffffffffffffffffffffffffffffffffffff168373ffffffffffffffffffffffffffffffffffffffff16141561077e576040517f08c379a000000000000000000000000000000000000000000000000000000000815260040161077590613b06565b60405180910390fd5b8073ffffffffffffffffffffffffffffffffffffffff1661079d6112ac565b73ffffffffffffffffffffffffffffffffffffffff1614806107cc57506107cb816107c66112ac565b611050565b5b61080b576040517f08c379a0000000000000000000000000000000000000000000000000000000008152600401610802906139a6565b60405180910390fd5b61081583836112b4565b505050565b61082b6108256112ac565b8261136d565b61086a576040517f08c379a000000000000000000000000000000000000000000000000000000000815260040161086190613b26565b60405180910390fd5b61087583838361144b565b505050565b600060076000838152602001908152602001600020600101549050919050565b6108a38261087a565b6108ac816116b2565b6108b683836116c6565b505050565b6108c36112ac565b73ffffffffffffffffffffffffffffffffffffffff168173ffffffffffffffffffffffffffffffffffffffff1614610930576040517f08c379a000000000000000000000000000000000000000000000000000000000815260040161092790613b46565b60405180910390fd5b61093a82826117a7565b5050565b6109687f9f2df0fed2c77648de5860a4cc508cd0818c85b8b8a1ab4ceeef8d981c8956a633610c17565b6109a7576040517f08c379a000000000000000000000000000000000000000000000000000000000815260040161099e90613ae6565b60405180910390fd5b60003390506000600860008373ffffffffffffffffffffffffffffffffffffffff1673ffffffffffffffffffffffffffffffffffffffff1681526020019081526020016000205490506000600860008473ffffffffffffffffffffffffffffffffffffffff1673ffffffffffffffffffffffffffffffffffffffff168152602001908152602001600020819055508173ffffffffffffffffffffffffffffffffffffffff166108fc829081150290604051600060405180830381858888f19350505050158015610a7b573d6000803e3d6000fd5b505050565b610a9b83838360405180602001604052806000815250610d31565b505050565b6000804690508091505090565b6000806002600084815260200190815260200160002060009054906101000a900473ffffffffffffffffffffffffffffffffffffffff169050600073ffffffffffffffffffffffffffffffffffffffff168173ffffffffffffffffffffffffffffffffffffffff161415610b56576040517f08c379a0000000000000000000000000000000000000000000000000000000008152600401610b4d906139e6565b60405180910390fd5b80915050919050565b60008073ffffffffffffffffffffffffffffffffffffffff168273ffffffffffffffffffffffffffffffffffffffff161415610bd0576040517f08c379a0000000000000000000000000000000000000000000000000000000008152600401610bc7906139c6565b60405180910390fd5b600360008373ffffffffffffffffffffffffffffffffffffffff1673ffffffffffffffffffffffffffffffffffffffff168152602001908152602001600020549050919050565b60006007600084815260200190815260200160002060000160008373ffffffffffffffffffffffffffffffffffffffff1673ffffffffffffffffffffffffffffffffffffffff16815260200190815260200160002060009054906101000a900460ff16905092915050565b606060018054610c9190613edf565b80601f0160208091040260200160405190810160405280929190818152602001828054610cbd90613edf565b8015610d0a5780601f10610cdf57610100808354040283529160200191610d0a565b820191906000526020600020905b815481529060010190602001808311610ced57829003601f168201915b5050505050905090565b6000801b81565b610d2d610d266112ac565b8383611889565b5050565b610d42610d3c6112ac565b8361136d565b610d81576040517f08c379a0000000000000000000000000000000000000000000000000000000008152600401610d7890613b26565b60405180910390fd5b610d8d848484846119f6565b50505050565b6060610d9e82611240565b610ddd576040517f08c379a0000000000000000000000000000000000000000000000000000000008152600401610dd490613a86565b60405180910390fd5b6000600660008481526020019081526020016000208054610dfd90613edf565b80601f0160208091040260200160405190810160405280929190818152602001828054610e2990613edf565b8015610e765780601f10610e4b57610100808354040283529160200191610e76565b820191906000526020600020905b815481529060010190602001808311610e5957829003601f168201915b505050505090506000610e87611a52565b9050600081511415610e9d578192505050610ee0565b600082511115610ed2578082604051602001610eba929190613635565b60405160208183030381529060405292505050610ee0565b610edb84611a69565b925050505b919050565b7f9f2df0fed2c77648de5860a4cc508cd0818c85b8b8a1ab4ceeef8d981c8956a681565b610f128261087a565b610f1b816116b2565b610f2583836117a7565b505050565b600080610f3683611b10565b90508260200135341015610f7f576040517f08c379a0000000000000000000000000000000000000000000000000000000008152600401610f7690613a46565b60405180910390fd5b610f8d818460000135611b82565b610fed8360000135848060400190610fa59190613bd8565b8080601f016020809104026020016040519081016040528093929190818152602001838380828437600081840152601f19601f82011690508083019250505050505050611d5c565b610ffc8133856000013561144b565b8260000135915050919050565b6000600860003373ffffffffffffffffffffffffffffffffffffffff1673ffffffffffffffffffffffffffffffffffffffff16815260200190815260200160002054905090565b6000600560008473ffffffffffffffffffffffffffffffffffffffff1673ffffffffffffffffffffffffffffffffffffffff16815260200190815260200160002060008373ffffffffffffffffffffffffffffffffffffffff1673ffffffffffffffffffffffffffffffffffffffff16815260200190815260200160002060009054906101000a900460ff16905092915050565b60007f80ac58cd000000000000000000000000000000000000000000000000000000007bffffffffffffffffffffffffffffffffffffffffffffffffffffffff1916827bffffffffffffffffffffffffffffffffffffffffffffffffffffffff191614806111af57507f5b5e139f000000000000000000000000000000000000000000000000000000007bffffffffffffffffffffffffffffffffffffffffffffffffffffffff1916827bffffffffffffffffffffffffffffffffffffffffffffffffffffffff1916145b806111bf57506111be82611dd0565b5b9050919050565b60007f7965db0b000000000000000000000000000000000000000000000000000000007bffffffffffffffffffffffffffffffffffffffffffffffffffffffff1916827bffffffffffffffffffffffffffffffffffffffffffffffffffffffff191614806112395750611238826110e4565b5b9050919050565b60008073ffffffffffffffffffffffffffffffffffffffff166002600084815260200190815260200160002060009054906101000a900473ffffffffffffffffffffffffffffffffffffffff1673ffffffffffffffffffffffffffffffffffffffff1614159050919050565b600033905090565b816004600083815260200190815260200160002060006101000a81548173ffffffffffffffffffffffffffffffffffffffff021916908373ffffffffffffffffffffffffffffffffffffffff160217905550808273ffffffffffffffffffffffffffffffffffffffff1661132783610aad565b73ffffffffffffffffffffffffffffffffffffffff167f8c5be1e5ebec7d5bd14f71427d1e84f3dd0314c0f7b2291e5b200ac8c7c3b92560405160405180910390a45050565b600061137882611240565b6113b7576040517f08c379a00000000000000000000000000000000000000000000000000000000081526004016113ae90613986565b60405180910390fd5b60006113c283610aad565b90508073ffffffffffffffffffffffffffffffffffffffff168473ffffffffffffffffffffffffffffffffffffffff16148061143157508373ffffffffffffffffffffffffffffffffffffffff166114198461067d565b73ffffffffffffffffffffffffffffffffffffffff16145b8061144257506114418185611050565b5b91505092915050565b8273ffffffffffffffffffffffffffffffffffffffff1661146b82610aad565b73ffffffffffffffffffffffffffffffffffffffff16146114c1576040517f08c379a00000000000000000000000000000000000000000000000000000000081526004016114b8906138e6565b60405180910390fd5b600073ffffffffffffffffffffffffffffffffffffffff168273ffffffffffffffffffffffffffffffffffffffff161415611531576040517f08c379a000000000000000000000000000000000000000000000000000000000815260040161152890613926565b60405180910390fd5b61153c838383611e3a565b6115476000826112b4565b6001600360008573ffffffffffffffffffffffffffffffffffffffff1673ffffffffffffffffffffffffffffffffffffffff16815260200190815260200160002060008282546115979190613db4565b925050819055506001600360008473ffffffffffffffffffffffffffffffffffffffff1673ffffffffffffffffffffffffffffffffffffffff16815260200190815260200160002060008282546115ee9190613cd3565b92505081905550816002600083815260200190815260200160002060006101000a81548173ffffffffffffffffffffffffffffffffffffffff021916908373ffffffffffffffffffffffffffffffffffffffff160217905550808273ffffffffffffffffffffffffffffffffffffffff168473ffffffffffffffffffffffffffffffffffffffff167fddf252ad1be2c89b69c2b068fc378daa952ba7f163c4a11628f55a4df523b3ef60405160405180910390a46116ad838383611e3f565b505050565b6116c3816116be6112ac565b611e44565b50565b6116d08282610c17565b6117a35760016007600084815260200190815260200160002060000160008373ffffffffffffffffffffffffffffffffffffffff1673ffffffffffffffffffffffffffffffffffffffff16815260200190815260200160002060006101000a81548160ff0219169083151502179055506117486112ac565b73ffffffffffffffffffffffffffffffffffffffff168173ffffffffffffffffffffffffffffffffffffffff16837f2f8788117e7eff1d82e926ec794901d17c78024a50270940304540a733656f0d60405160405180910390a45b5050565b6117b18282610c17565b156118855760006007600084815260200190815260200160002060000160008373ffffffffffffffffffffffffffffffffffffffff1673ffffffffffffffffffffffffffffffffffffffff16815260200190815260200160002060006101000a81548160ff02191690831515021790555061182a6112ac565b73ffffffffffffffffffffffffffffffffffffffff168173ffffffffffffffffffffffffffffffffffffffff16837ff6391f5c32d9c69d2a47ea670b442974b53935d1edc7fd64eb21e047a839171b60405160405180910390a45b5050565b8173ffffffffffffffffffffffffffffffffffffffff168373ffffffffffffffffffffffffffffffffffffffff1614156118f8576040517f08c379a00000000000000000000000000000000000000000000000000000000081526004016118ef90613946565b60405180910390fd5b80600560008573ffffffffffffffffffffffffffffffffffffffff1673ffffffffffffffffffffffffffffffffffffffff16815260200190815260200160002060008473ffffffffffffffffffffffffffffffffffffffff1673ffffffffffffffffffffffffffffffffffffffff16815260200190815260200160002060006101000a81548160ff0219169083151502179055508173ffffffffffffffffffffffffffffffffffffffff168373ffffffffffffffffffffffffffffffffffffffff167f17307eab39ab6107e8899845ad3d59bd9653f200f220920489ca2b5937696c31836040516119e99190613731565b60405180910390a3505050565b611a0184848461144b565b611a0d84848484611ee1565b611a4c576040517f08c379a0000000000000000000000000000000000000000000000000000000008152600401611a43906138c6565b60405180910390fd5b50505050565b606060405180602001604052806000815250905090565b6060611a7482611240565b611ab3576040517f08c379a0000000000000000000000000000000000000000000000000000000008152600401611aaa90613ac6565b60405180910390fd5b6000611abd611a52565b90506000815111611add5760405180602001604052806000815250611b08565b80611ae784612078565b604051602001611af8929190613635565b6040516020818303038152906040525b915050919050565b600080611b1c83612225565b9050611b7a81848060600190611b329190613b81565b8080601f016020809104026020016040519081016040528093929190818152602001838380828437600081840152601f19601f820116905080830192505050505050506122b0565b915050919050565b600073ffffffffffffffffffffffffffffffffffffffff168273ffffffffffffffffffffffffffffffffffffffff161415611bf2576040517f08c379a0000000000000000000000000000000000000000000000000000000008152600401611be990613a66565b60405180910390fd5b611bfb81611240565b15611c3b576040517f08c379a0000000000000000000000000000000000000000000000000000000008152600401611c3290613906565b60405180910390fd5b611c4760008383611e3a565b6001600360008473ffffffffffffffffffffffffffffffffffffffff1673ffffffffffffffffffffffffffffffffffffffff1681526020019081526020016000206000828254611c979190613cd3565b92505081905550816002600083815260200190815260200160002060006101000a81548173ffffffffffffffffffffffffffffffffffffffff021916908373ffffffffffffffffffffffffffffffffffffffff160217905550808273ffffffffffffffffffffffffffffffffffffffff16600073ffffffffffffffffffffffffffffffffffffffff167fddf252ad1be2c89b69c2b068fc378daa952ba7f163c4a11628f55a4df523b3ef60405160405180910390a4611d5860008383611e3f565b5050565b611d6582611240565b611da4576040517f08c379a0000000000000000000000000000000000000000000000000000000008152600401611d9b90613a06565b60405180910390fd5b80600660008481526020019081526020016000209080519060200190611dcb929190612cd5565b505050565b60007f01ffc9a7000000000000000000000000000000000000000000000000000000007bffffffffffffffffffffffffffffffffffffffffffffffffffffffff1916827bffffffffffffffffffffffffffffffffffffffffffffffffffffffff1916149050919050565b505050565b505050565b611e4e8282610c17565b611edd57611e738173ffffffffffffffffffffffffffffffffffffffff1660146122d7565b611e818360001c60206122d7565b604051602001611e92929190613690565b6040516020818303038152906040526040517f08c379a0000000000000000000000000000000000000000000000000000000008152600401611ed49190613844565b60405180910390fd5b5050565b6000611f028473ffffffffffffffffffffffffffffffffffffffff166125d1565b1561206b578373ffffffffffffffffffffffffffffffffffffffff1663150b7a02611f2b6112ac565b8786866040518563ffffffff1660e01b8152600401611f4d94939291906136e5565b602060405180830381600087803b158015611f6757600080fd5b505af1925050508015611f9857506040513d601f19601f82011682018060405250810190611f9591906130ae565b60015b61201b573d8060008114611fc8576040519150601f19603f3d011682016040523d82523d6000602084013e611fcd565b606091505b50600081511415612013576040517f08c379a000000000000000000000000000000000000000000000000000000000815260040161200a906138c6565b60405180910390fd5b805181602001fd5b63150b7a0260e01b7bffffffffffffffffffffffffffffffffffffffffffffffffffffffff1916817bffffffffffffffffffffffffffffffffffffffffffffffffffffffff191614915050612070565b600190505b949350505050565b606060008214156120c0576040518060400160405280600181526020017f30000000000000000000000000000000000000000000000000000000000000008152509050612220565b600082905060005b600082146120f25780806120db90613f42565b915050600a826120eb9190613d29565b91506120c8565b60008167ffffffffffffffff811115612134577f4e487b7100000000000000000000000000000000000000000000000000000000600052604160045260246000fd5b6040519080825280601f01601f1916602001820160405280156121665781602001600182028036833780820191505090505b5090505b600085146122195760018261217f9190613db4565b9150600a8561218e9190613f95565b603061219a9190613cd3565b60f81b8183815181106121d6577f4e487b7100000000000000000000000000000000000000000000000000000000600052603260045260246000fd5b60200101907effffffffffffffffffffffffffffffffffffffffffffffffffffffffffffff1916908160001a905350600a856122129190613d29565b945061216a565b8093505050505b919050565b60006122a97f6316f9ddd4d59a364f3b95c26bab9d392c3380ace0fff15e91ed76f0d8bcd15a836000013584602001358580604001906122659190613bd8565b60405161227392919061361c565b604051809103902060405160200161228e94939291906137ba565b604051602081830303815290604052805190602001206125f4565b9050919050565b60008060006122bf858561260e565b915091506122cc81612691565b819250505092915050565b6060600060028360026122ea9190613d5a565b6122f49190613cd3565b67ffffffffffffffff811115612333577f4e487b7100000000000000000000000000000000000000000000000000000000600052604160045260246000fd5b6040519080825280601f01601f1916602001820160405280156123655781602001600182028036833780820191505090505b5090507f3000000000000000000000000000000000000000000000000000000000000000816000815181106123c3577f4e487b7100000000000000000000000000000000000000000000000000000000600052603260045260246000fd5b60200101907effffffffffffffffffffffffffffffffffffffffffffffffffffffffffffff1916908160001a9053507f78000000000000000000000000000000000000000000000000000000000000008160018151811061244d577f4e487b7100000000000000000000000000000000000000000000000000000000600052603260045260246000fd5b60200101907effffffffffffffffffffffffffffffffffffffffffffffffffffffffffffff1916908160001a9053506000600184600261248d9190613d5a565b6124979190613cd3565b90505b6001811115612583577f3031323334353637383961626364656600000000000000000000000000000000600f8616601081106124ff577f4e487b7100000000000000000000000000000000000000000000000000000000600052603260045260246000fd5b1a60f81b82828151811061253c577f4e487b7100000000000000000000000000000000000000000000000000000000600052603260045260246000fd5b60200101907effffffffffffffffffffffffffffffffffffffffffffffffffffffffffffff1916908160001a905350600485901c94508061257c90613eb5565b905061249a565b50600084146125c7576040517f08c379a00000000000000000000000000000000000000000000000000000000081526004016125be90613886565b60405180910390fd5b8091505092915050565b6000808273ffffffffffffffffffffffffffffffffffffffff163b119050919050565b60006126076126016129e2565b83612afc565b9050919050565b6000806041835114156126505760008060006020860151925060408601519150606086015160001a905061264487828585612b2f565b9450945050505061268a565b604083511415612681576000806020850151915060408501519050612676868383612c3c565b93509350505061268a565b60006002915091505b9250929050565b600060048111156126cb577f4e487b7100000000000000000000000000000000000000000000000000000000600052602160045260246000fd5b816004811115612704577f4e487b7100000000000000000000000000000000000000000000000000000000600052602160045260246000fd5b141561270f576129df565b60016004811115612749577f4e487b7100000000000000000000000000000000000000000000000000000000600052602160045260246000fd5b816004811115612782577f4e487b7100000000000000000000000000000000000000000000000000000000600052602160045260246000fd5b14156127c3576040517f08c379a00000000000000000000000000000000000000000000000000000000081526004016127ba90613866565b60405180910390fd5b600260048111156127fd577f4e487b7100000000000000000000000000000000000000000000000000000000600052602160045260246000fd5b816004811115612836577f4e487b7100000000000000000000000000000000000000000000000000000000600052602160045260246000fd5b1415612877576040517f08c379a000000000000000000000000000000000000000000000000000000000815260040161286e906138a6565b60405180910390fd5b600360048111156128b1577f4e487b7100000000000000000000000000000000000000000000000000000000600052602160045260246000fd5b8160048111156128ea577f4e487b7100000000000000000000000000000000000000000000000000000000600052602160045260246000fd5b141561292b576040517f08c379a000000000000000000000000000000000000000000000000000000000815260040161292290613966565b60405180910390fd5b600480811115612964577f4e487b7100000000000000000000000000000000000000000000000000000000600052602160045260246000fd5b81600481111561299d577f4e487b7100000000000000000000000000000000000000000000000000000000600052602160045260246000fd5b14156129de576040517f08c379a00000000000000000000000000000000000000000000000000000000081526004016129d590613a26565b60405180910390fd5b5b50565b60007f000000000000000000000000000000000000000000000000000000000000000073ffffffffffffffffffffffffffffffffffffffff163073ffffffffffffffffffffffffffffffffffffffff16148015612a5e57507f000000000000000000000000000000000000000000000000000000000000000046145b15612a8b577f00000000000000000000000000000000000000000000000000000000000000009050612af9565b612af67f00000000000000000000000000000000000000000000000000000000000000007f00000000000000000000000000000000000000000000000000000000000000007f0000000000000000000000000000000000000000000000000000000000000000612c9b565b90505b90565b60008282604051602001612b11929190613659565b60405160208183030381529060405280519060200120905092915050565b6000807f7fffffffffffffffffffffffffffffff5d576e7357a4501ddfe92f46681b20a08360001c1115612b6a576000600391509150612c33565b601b8560ff1614158015612b825750601c8560ff1614155b15612b94576000600491509150612c33565b600060018787878760405160008152602001604052604051612bb994939291906137ff565b6020604051602081039080840390855afa158015612bdb573d6000803e3d6000fd5b505050602060405103519050600073ffffffffffffffffffffffffffffffffffffffff168173ffffffffffffffffffffffffffffffffffffffff161415612c2a57600060019250925050612c33565b80600092509250505b94509492505050565b60008060007f7fffffffffffffffffffffffffffffffffffffffffffffffffffffffffffffff60001b841690506000601b60ff8660001c901c612c7f9190613cd3565b9050612c8d87828885612b2f565b935093505050935093915050565b60008383834630604051602001612cb6959493929190613767565b6040516020818303038152906040528051906020012090509392505050565b828054612ce190613edf565b90600052602060002090601f016020900481019282612d035760008555612d4a565b82601f10612d1c57805160ff1916838001178555612d4a565b82800160010185558215612d4a579182015b82811115612d49578251825591602001919060010190612d2e565b5b509050612d579190612d5b565b5090565b5b80821115612d74576000816000905550600101612d5c565b5090565b6000612d8b612d8684613c54565b613c2f565b905082815260208101848484011115612da357600080fd5b612dae848285613e73565b509392505050565b600081359050612dc58161476c565b92915050565b600081359050612dda81614783565b92915050565b600081359050612def8161479a565b92915050565b600081359050612e04816147b1565b92915050565b600081519050612e19816147b1565b92915050565b600082601f830112612e3057600080fd5b8135612e40848260208601612d78565b91505092915050565b600060808284031215612e5b57600080fd5b81905092915050565b600081359050612e73816147c8565b92915050565b600060208284031215612e8b57600080fd5b6000612e9984828501612db6565b91505092915050565b60008060408385031215612eb557600080fd5b6000612ec385828601612db6565b9250506020612ed485828601612db6565b9150509250929050565b600080600060608486031215612ef357600080fd5b6000612f0186828701612db6565b9350506020612f1286828701612db6565b9250506040612f2386828701612e64565b9150509250925092565b60008060008060808587031215612f4357600080fd5b6000612f5187828801612db6565b9450506020612f6287828801612db6565b9350506040612f7387828801612e64565b925050606085013567ffffffffffffffff811115612f9057600080fd5b612f9c87828801612e1f565b91505092959194509250565b60008060408385031215612fbb57600080fd5b6000612fc985828601612db6565b9250506020612fda85828601612dcb565b9150509250929050565b60008060408385031215612ff757600080fd5b600061300585828601612db6565b925050602061301685828601612e64565b9150509250929050565b60006020828403121561303257600080fd5b600061304084828501612de0565b91505092915050565b6000806040838503121561305c57600080fd5b600061306a85828601612de0565b925050602061307b85828601612db6565b9150509250929050565b60006020828403121561309757600080fd5b60006130a584828501612df5565b91505092915050565b6000602082840312156130c057600080fd5b60006130ce84828501612e0a565b91505092915050565b6000602082840312156130e957600080fd5b600082013567ffffffffffffffff81111561310357600080fd5b61310f84828501612e49565b91505092915050565b60006020828403121561312a57600080fd5b600061313884828501612e64565b91505092915050565b61314a81613de8565b82525050565b61315981613dfa565b82525050565b61316881613e06565b82525050565b61317f61317a82613e06565b613f8b565b82525050565b60006131918385613cac565b935061319e838584613e73565b82840190509392505050565b60006131b582613c85565b6131bf8185613c9b565b93506131cf818560208601613e82565b6131d881614082565b840191505092915050565b60006131ee82613c90565b6131f88185613cb7565b9350613208818560208601613e82565b61321181614082565b840191505092915050565b600061322782613c90565b6132318185613cc8565b9350613241818560208601613e82565b80840191505092915050565b600061325a601883613cb7565b915061326582614093565b602082019050919050565b600061327d602083613cb7565b9150613288826140bc565b602082019050919050565b60006132a0601f83613cb7565b91506132ab826140e5565b602082019050919050565b60006132c3603283613cb7565b91506132ce8261410e565b604082019050919050565b60006132e6602583613cb7565b91506132f18261415d565b604082019050919050565b6000613309601c83613cb7565b9150613314826141ac565b602082019050919050565b600061332c600283613cc8565b9150613337826141d5565b600282019050919050565b600061334f602483613cb7565b915061335a826141fe565b604082019050919050565b6000613372601983613cb7565b915061337d8261424d565b602082019050919050565b6000613395602283613cb7565b91506133a082614276565b604082019050919050565b60006133b8602c83613cb7565b91506133c3826142c5565b604082019050919050565b60006133db603883613cb7565b91506133e682614314565b604082019050919050565b60006133fe602a83613cb7565b915061340982614363565b604082019050919050565b6000613421602983613cb7565b915061342c826143b2565b604082019050919050565b6000613444602e83613cb7565b915061344f82614401565b604082019050919050565b6000613467602283613cb7565b915061347282614450565b604082019050919050565b600061348a601c83613cb7565b91506134958261449f565b602082019050919050565b60006134ad602083613cb7565b91506134b8826144c8565b602082019050919050565b60006134d0603183613cb7565b91506134db826144f1565b604082019050919050565b60006134f3602c83613cb7565b91506134fe82614540565b604082019050919050565b6000613516602f83613cb7565b91506135218261458f565b604082019050919050565b6000613539602483613cb7565b9150613544826145de565b604082019050919050565b600061355c602183613cb7565b91506135678261462d565b604082019050919050565b600061357f603183613cb7565b915061358a8261467c565b604082019050919050565b60006135a2601783613cc8565b91506135ad826146cb565b601782019050919050565b60006135c5601183613cc8565b91506135d0826146f4565b601182019050919050565b60006135e8602f83613cb7565b91506135f38261471d565b604082019050919050565b61360781613e5c565b82525050565b61361681613e66565b82525050565b6000613629828486613185565b91508190509392505050565b6000613641828561321c565b915061364d828461321c565b91508190509392505050565b60006136648261331f565b9150613670828561316e565b602082019150613680828461316e565b6020820191508190509392505050565b600061369b82613595565b91506136a7828561321c565b91506136b2826135b8565b91506136be828461321c565b91508190509392505050565b60006020820190506136df6000830184613141565b92915050565b60006080820190506136fa6000830187613141565b6137076020830186613141565b61371460408301856135fe565b818103606083015261372681846131aa565b905095945050505050565b60006020820190506137466000830184613150565b92915050565b6000602082019050613761600083018461315f565b92915050565b600060a08201905061377c600083018861315f565b613789602083018761315f565b613796604083018661315f565b6137a360608301856135fe565b6137b06080830184613141565b9695505050505050565b60006080820190506137cf600083018761315f565b6137dc60208301866135fe565b6137e960408301856135fe565b6137f6606083018461315f565b95945050505050565b6000608082019050613814600083018761315f565b613821602083018661360d565b61382e604083018561315f565b61383b606083018461315f565b95945050505050565b6000602082019050818103600083015261385e81846131e3565b905092915050565b6000602082019050818103600083015261387f8161324d565b9050919050565b6000602082019050818103600083015261389f81613270565b9050919050565b600060208201905081810360008301526138bf81613293565b9050919050565b600060208201905081810360008301526138df816132b6565b9050919050565b600060208201905081810360008301526138ff816132d9565b9050919050565b6000602082019050818103600083015261391f816132fc565b9050919050565b6000602082019050818103600083015261393f81613342565b9050919050565b6000602082019050818103600083015261395f81613365565b9050919050565b6000602082019050818103600083015261397f81613388565b9050919050565b6000602082019050818103600083015261399f816133ab565b9050919050565b600060208201905081810360008301526139bf816133ce565b9050919050565b600060208201905081810360008301526139df816133f1565b9050919050565b600060208201905081810360008301526139ff81613414565b9050919050565b60006020820190508181036000830152613a1f81613437565b9050919050565b60006020820190508181036000830152613a3f8161345a565b9050919050565b60006020820190508181036000830152613a5f8161347d565b9050919050565b60006020820190508181036000830152613a7f816134a0565b9050919050565b60006020820190508181036000830152613a9f816134c3565b9050919050565b60006020820190508181036000830152613abf816134e6565b9050919050565b60006020820190508181036000830152613adf81613509565b9050919050565b60006020820190508181036000830152613aff8161352c565b9050919050565b60006020820190508181036000830152613b1f8161354f565b9050919050565b60006020820190508181036000830152613b3f81613572565b9050919050565b60006020820190508181036000830152613b5f816135db565b9050919050565b6000602082019050613b7b60008301846135fe565b92915050565b60008083356001602003843603038112613b9a57600080fd5b80840192508235915067ffffffffffffffff821115613bb857600080fd5b602083019250600182023603831315613bd057600080fd5b509250929050565b60008083356001602003843603038112613bf157600080fd5b80840192508235915067ffffffffffffffff821115613c0f57600080fd5b602083019250600182023603831315613c2757600080fd5b509250929050565b6000613c39613c4a565b9050613c458282613f11565b919050565b6000604051905090565b600067ffffffffffffffff821115613c6f57613c6e614053565b5b613c7882614082565b9050602081019050919050565b600081519050919050565b600081519050919050565b600082825260208201905092915050565b600081905092915050565b600082825260208201905092915050565b600081905092915050565b6000613cde82613e5c565b9150613ce983613e5c565b9250827fffffffffffffffffffffffffffffffffffffffffffffffffffffffffffffffff03821115613d1e57613d1d613fc6565b5b828201905092915050565b6000613d3482613e5c565b9150613d3f83613e5c565b925082613d4f57613d4e613ff5565b5b828204905092915050565b6000613d6582613e5c565b9150613d7083613e5c565b9250817fffffffffffffffffffffffffffffffffffffffffffffffffffffffffffffffff0483118215151615613da957613da8613fc6565b5b828202905092915050565b6000613dbf82613e5c565b9150613dca83613e5c565b925082821015613ddd57613ddc613fc6565b5b828203905092915050565b6000613df382613e3c565b9050919050565b60008115159050919050565b6000819050919050565b60007fffffffff0000000000000000000000000000000000000000000000000000000082169050919050565b600073ffffffffffffffffffffffffffffffffffffffff82169050919050565b6000819050919050565b600060ff82169050919050565b82818337600083830152505050565b60005b83811015613ea0578082015181840152602081019050613e85565b83811115613eaf576000848401525b50505050565b6000613ec082613e5c565b91506000821415613ed457613ed3613fc6565b5b600182039050919050565b60006002820490506001821680613ef757607f821691505b60208210811415613f0b57613f0a614024565b5b50919050565b613f1a82614082565b810181811067ffffffffffffffff82111715613f3957613f38614053565b5b80604052505050565b6000613f4d82613e5c565b91507fffffffffffffffffffffffffffffffffffffffffffffffffffffffffffffffff821415613f8057613f7f613fc6565b5b600182019050919050565b6000819050919050565b6000613fa082613e5c565b9150613fab83613e5c565b925082613fbb57613fba613ff5565b5b828206905092915050565b7f4e487b7100000000000000000000000000000000000000000000000000000000600052601160045260246000fd5b7f4e487b7100000000000000000000000000000000000000000000000000000000600052601260045260246000fd5b7f4e487b7100000000000000000000000000000000000000000000000000000000600052602260045260246000fd5b7f4e487b7100000000000000000000000000000000000000000000000000000000600052604160045260246000fd5b6000601f19601f8301169050919050565b7f45434453413a20696e76616c6964207369676e61747572650000000000000000600082015250565b7f537472696e67733a20686578206c656e67746820696e73756666696369656e74600082015250565b7f45434453413a20696e76616c6964207369676e6174757265206c656e67746800600082015250565b7f4552433732313a207472616e7366657220746f206e6f6e20455243373231526560008201527f63656976657220696d706c656d656e7465720000000000000000000000000000602082015250565b7f4552433732313a207472616e736665722066726f6d20696e636f72726563742060008201527f6f776e6572000000000000000000000000000000000000000000000000000000602082015250565b7f4552433732313a20746f6b656e20616c7265616479206d696e74656400000000600082015250565b7f1901000000000000000000000000000000000000000000000000000000000000600082015250565b7f4552433732313a207472616e7366657220746f20746865207a65726f2061646460008201527f7265737300000000000000000000000000000000000000000000000000000000602082015250565b7f4552433732313a20617070726f766520746f2063616c6c657200000000000000600082015250565b7f45434453413a20696e76616c6964207369676e6174757265202773272076616c60008201527f7565000000000000000000000000000000000000000000000000000000000000602082015250565b7f4552433732313a206f70657261746f7220717565727920666f72206e6f6e657860008201527f697374656e7420746f6b656e0000000000000000000000000000000000000000602082015250565b7f4552433732313a20617070726f76652063616c6c6572206973206e6f74206f7760008201527f6e6572206e6f7220617070726f76656420666f7220616c6c0000000000000000602082015250565b7f4552433732313a2062616c616e636520717565727920666f7220746865207a6560008201527f726f206164647265737300000000000000000000000000000000000000000000602082015250565b7f4552433732313a206f776e657220717565727920666f72206e6f6e657869737460008201527f656e7420746f6b656e0000000000000000000000000000000000000000000000602082015250565b7f45524337323155524953746f726167653a2055524920736574206f66206e6f6e60008201527f6578697374656e7420746f6b656e000000000000000000000000000000000000602082015250565b7f45434453413a20696e76616c6964207369676e6174757265202776272076616c60008201527f7565000000000000000000000000000000000000000000000000000000000000602082015250565b7f496e73756666696369656e742066756e647320746f2072656465656d00000000600082015250565b7f4552433732313a206d696e7420746f20746865207a65726f2061646472657373600082015250565b7f45524337323155524953746f726167653a2055524920717565727920666f722060008201527f6e6f6e6578697374656e7420746f6b656e000000000000000000000000000000602082015250565b7f4552433732313a20617070726f76656420717565727920666f72206e6f6e657860008201527f697374656e7420746f6b656e0000000000000000000000000000000000000000602082015250565b7f4552433732314d657461646174613a2055524920717565727920666f72206e6f60008201527f6e6578697374656e7420746f6b656e0000000000000000000000000000000000602082015250565b7f4f6e6c7920617574686f72697a6564206d696e746572732063616e207769746860008201527f6472617700000000000000000000000000000000000000000000000000000000602082015250565b7f4552433732313a20617070726f76616c20746f2063757272656e74206f776e6560008201527f7200000000000000000000000000000000000000000000000000000000000000602082015250565b7f4552433732313a207472616e736665722063616c6c6572206973206e6f74206f60008201527f776e6572206e6f7220617070726f766564000000000000000000000000000000602082015250565b7f416363657373436f6e74726f6c3a206163636f756e7420000000000000000000600082015250565b7f206973206d697373696e6720726f6c6520000000000000000000000000000000600082015250565b7f416363657373436f6e74726f6c3a2063616e206f6e6c792072656e6f756e636560008201527f20726f6c657320666f722073656c660000000000000000000000000000000000602082015250565b61477581613de8565b811461478057600080fd5b50565b61478c81613dfa565b811461479757600080fd5b50565b6147a381613e06565b81146147ae57600080fd5b50565b6147ba81613e10565b81146147c557600080fd5b50565b6147d181613e5c565b81146147dc57600080fd5b5056fea2646970667358221220c1a041ea593540fa14c5fa011461d38098059e5149ab599ee5133ca5a258caec64736f6c63430008010033",
  "immutableReferences": {
    "2895": [
      {
        "length": 32,
        "start": 10853
      }
    ],
    "2897": [
      {
        "length": 32,
        "start": 10812
      }
    ],
    "2899": [
      {
        "length": 32,
        "start": 10726
      }
    ],
    "2901": [
      {
        "length": 32,
        "start": 10929
      }
    ],
    "2903": [
      {
        "length": 32,
        "start": 10962
      }
    ],
    "2905": [
      {
        "length": 32,
        "start": 10896
      }
    ]
  },
  "source": "// SPDX-License-Identifier: MIT\npragma solidity ^0.8.0;\n\nimport \"./access/AccessControl.sol\";\nimport \"./access/Ownable.sol\";\n\nimport \"./ERC721/ERC721.sol\";\nimport \"./ERC721/extensions/ERC721URIStorage.sol\";\n\nimport \"./utils/cryptography/ECDSA.sol\";\nimport \"./utils/cryptography/draft-EIP712.sol\";\n\n\nimport \"./utils/Counters.sol\";\n\n\ncontract PactNFT is ERC721URIStorage, EIP712, AccessControl {\n\n    bytes32 public constant MINTER_ROLE = keccak256(\"MINTER_ROLE\");\n    string private constant SIGNING_DOMAIN = \"PactNFT-Voucher\";\n    string private constant SIGNATURE_VERSION = \"1\";\n\n    mapping (address => uint256) pendingWithdrawals;\n\n    constructor() \n        ERC721(\"PactNFT\", \"PACTNFT\") \n        EIP712(SIGNING_DOMAIN, SIGNATURE_VERSION) {}\n\n    struct NFTVoucher {\n        uint256 tokenId;\n        uint256 minPrice;\n        string uri;\n        bytes signature;\n    }\n\n    function redeem(NFTVoucher calldata voucher) public payable returns (uint256) {\n        address signer = _verify(voucher);\n\n        //require(hasRole(MINTER_ROLE, signer), \"Signature invalid or unauthorized\");\n\n        require(msg.value >= voucher.minPrice, \"Insufficient funds to redeem\");\n\n        _mint(signer, voucher.tokenId);\n        _setTokenURI(voucher.tokenId, voucher.uri);\n        \n        _transfer(signer, msg.sender, voucher.tokenId);\n\n        //pendingWithdrawals[signer] += msg.value;\n\n        return voucher.tokenId;\n    }\n\n    function withdraw() public {\n        require(hasRole(MINTER_ROLE, msg.sender), \"Only authorized minters can withdraw\");\n        \n        // IMPORTANT: casting msg.sender to a payable address is only safe if ALL members of the minter role are payable addresses.\n        address payable receiver = payable(msg.sender);\n\n        uint amount = pendingWithdrawals[receiver];\n        // zero account before transfer to prevent re-entrancy attack\n        pendingWithdrawals[receiver] = 0;\n        receiver.transfer(amount);\n    }\n\n    function availableToWithdraw() public view returns (uint256) {\n        return pendingWithdrawals[msg.sender];\n    }\n\n    function _hash(NFTVoucher calldata voucher) internal view returns (bytes32) {\n        return _hashTypedDataV4(keccak256(abi.encode(\n            keccak256(\"NFTVoucher(uint256 tokenId,uint256 minPrice,string uri)\"),\n            voucher.tokenId,\n            voucher.minPrice,\n            keccak256(bytes(voucher.uri))\n        )));\n    }\n\n    function getChainID() external view returns (uint256) {\n        uint256 id;\n        assembly {\n            id := chainid()\n        }\n        return id;\n    }\n\n    function _verify(NFTVoucher calldata voucher) internal view returns (address) {\n        bytes32 digest = _hash(voucher);\n        return ECDSA.recover(digest, voucher.signature);\n    }\n\n    function supportsInterface(bytes4 interfaceId) public view virtual override (AccessControl, ERC721) returns (bool) {\n        return ERC721.supportsInterface(interfaceId) || AccessControl.supportsInterface(interfaceId);\n    }\n}\n",
  "sourcePath": "/home/x/marketplace/nft_smartc/contracts/PactNFT.sol",
  "compiler": {
    "name": "solc",
    "version": "0.8.1+commit.df193b15.Emscripten.clang"
  },
  "schemaVersion": "3.4.3",
  "updatedAt": "2022-02-06T21:57:39.704Z",
  "networkType": "ethereum",
  "devdoc": {
    "kind": "dev",
    "methods": {
      "approve(address,uint256)": {
        "details": "See {IERC721-approve}."
      },
      "balanceOf(address)": {
        "details": "See {IERC721-balanceOf}."
      },
      "getApproved(uint256)": {
        "details": "See {IERC721-getApproved}."
      },
      "getRoleAdmin(bytes32)": {
        "details": "Returns the admin role that controls `role`. See {grantRole} and {revokeRole}. To change a role's admin, use {_setRoleAdmin}."
      },
      "grantRole(bytes32,address)": {
        "details": "Grants `role` to `account`. If `account` had not been already granted `role`, emits a {RoleGranted} event. Requirements: - the caller must have ``role``'s admin role."
      },
      "hasRole(bytes32,address)": {
        "details": "Returns `true` if `account` has been granted `role`."
      },
      "isApprovedForAll(address,address)": {
        "details": "See {IERC721-isApprovedForAll}."
      },
      "name()": {
        "details": "See {IERC721Metadata-name}."
      },
      "ownerOf(uint256)": {
        "details": "See {IERC721-ownerOf}."
      },
      "renounceRole(bytes32,address)": {
        "details": "Revokes `role` from the calling account. Roles are often managed via {grantRole} and {revokeRole}: this function's purpose is to provide a mechanism for accounts to lose their privileges if they are compromised (such as when a trusted device is misplaced). If the calling account had been revoked `role`, emits a {RoleRevoked} event. Requirements: - the caller must be `account`."
      },
      "revokeRole(bytes32,address)": {
        "details": "Revokes `role` from `account`. If `account` had been granted `role`, emits a {RoleRevoked} event. Requirements: - the caller must have ``role``'s admin role."
      },
      "safeTransferFrom(address,address,uint256)": {
        "details": "See {IERC721-safeTransferFrom}."
      },
      "safeTransferFrom(address,address,uint256,bytes)": {
        "details": "See {IERC721-safeTransferFrom}."
      },
      "setApprovalForAll(address,bool)": {
        "details": "See {IERC721-setApprovalForAll}."
      },
      "symbol()": {
        "details": "See {IERC721Metadata-symbol}."
      },
      "tokenURI(uint256)": {
        "details": "See {IERC721Metadata-tokenURI}."
      },
      "transferFrom(address,address,uint256)": {
        "details": "See {IERC721-transferFrom}."
      }
    },
    "version": 1
  },
  "userdoc": {
    "kind": "user",
    "methods": {},
    "version": 1
  }
}